{
  "fileName": "ERC1155.sol",
  "contractName": "ERC1155",
  "source": "// SPDX-License-Identifier: MIT\npragma solidity ^0.6.0;\n\nimport \"./IERC1155.sol\";\nimport \"./IERC1155Metadata.sol\";\nimport \"./Receiver/IERC1155R.sol\";\nimport \"../library/SafeMath.sol\";\nimport \"../library/Address.sol\";\n\n\ncontract ERC1155 is IERC1155, IERC1155MetadataURI {\n    using SafeMath for uint256;\n    using Address for address;\n\n    // Mapping from token ID to account balances\n    mapping(uint256 => mapping(address => uint256)) private _balances;\n\n    // Mapping from account to operator approvals\n    mapping(address => mapping(address => bool)) private _operatorApprovals;\n    // Used as the URI for all token types by relying on ID substition,\n    // e.g. https://token-cdn-domain/{id}.json\n    string private _uri;\n    /**\n        @dev Get the specified address' balance for token with specified ID.\n        Attempting to query the zero account for a balance will result in a revert.\n        @param account The address of the token holder\n        @param id ID of the token\n        @return The account's balance of the token type requested\n     */\n\n    function balanceOf(address account, uint256 id)\n        public\n        view\n        override\n        returns (uint256)\n    {\n        require(\n            account != address(0),\n            \"ERC1155: balance query for the zero address\"\n        );\n        return _balances[id][account];\n    }\n\n    /**\n        @dev Get the balance of multiple account/token pairs.\n        If any of the query accounts is the zero account, this query will revert.\n        @param accounts The addresses of the token holders\n        @param ids IDs of the tokens\n        @return Balances for each account and token id pair\n     */\n    function balanceOfBatch(address[] memory accounts, uint256[] memory ids)\n        public\n        view\n        override\n        returns (uint256[] memory)\n    {\n        require(\n            accounts.length == ids.length,\n            \"ERC1155: accounts and IDs must have same lengths\"\n        );\n\n        uint256[] memory batchBalances = new uint256[](accounts.length);\n\n        for (uint256 i = 0; i < accounts.length; ++i) {\n            require(\n                accounts[i] != address(0),\n                \"ERC1155: some address in batch balance query is zero\"\n            );\n            batchBalances[i] = _balances[ids[i]][accounts[i]];\n        }\n\n        return batchBalances;\n    }\n\n    /**\n     * @dev Sets or unsets the approval of a given operator.\n     *\n     * An operator is allowed to transfer all tokens of the sender on their behalf.\n     *\n     * Because an account already has operator privileges for itself, this function will revert\n     * if the account attempts to set the approval status for itself.\n     *\n     * @param operator address to set the approval\n     * @param approved representing the status of the approval to be set\n     */\n    function setApprovalForAll(address operator, bool approved) public virtual override {\n        require(\n            msg.sender != operator,\n            \"ERC1155: cannot set approval status for self\"\n        );\n        _operatorApprovals[msg.sender][operator] = approved;\n        emit ApprovalForAll(msg.sender, operator, approved);\n    }\n\n    /**\n        @notice Queries the approval status of an operator for a given account.\n        @param account   The account of the Tokens //owner\n        @param operator  Address of authorized operator\n        @return           True if the operator is approved, false if not\n    */\n    function isApprovedForAll(address account, address operator)\n        public\n        view\n        override\n        returns (bool)\n    {\n        return _operatorApprovals[account][operator];\n    }\n\n    /**\n        @dev Transfers `value` amount of an `id` from the `from` address to the `to` address specified.\n        Caller must be approved to manage the tokens being transferred out of the `from` account.\n        If `to` is a smart contract, will call `onERC1155Received` on `to` and act appropriately.\n        @param from Source address\n        @param to Target address\n        @param id ID of the token type\n        @param value Transfer amount\n        @param data Data forwarded to `onERC1155Received` if `to` is a contract receiver\n    */\n    function safeTransferFrom(\n        address from,\n        address to,\n        uint256 id,\n        uint256 value,\n        bytes memory data\n    ) public override {\n        require(to != address(0), \"ERC1155: target address must be non-zero\");\n        require(\n            from == msg.sender || isApprovedForAll(from, msg.sender) == true,\n            \"ERC1155: need operator approval for 3rd party transfers\"\n        );\n\n        _balances[id][from] = _balances[id][from].sub(\n            value,\n            \"ERC1155: insufficient balance for transfer\"\n        );\n        _balances[id][to] = _balances[id][to].add(value);\n\n        emit TransferSingle(msg.sender, from, to, id, value);\n\n        _doSafeTransferAcceptanceCheck(msg.sender, from, to, id, value, data);\n    }\n\n    /**\n        @dev Transfers `values` amount(s) of `ids` from the `from` address to the\n        `to` address specified. Caller must be approved to manage the tokens being\n        transferred out of the `from` account. If `to` is a smart contract, will\n        call `onERC1155BatchReceived` on `to` and act appropriately.\n        @param from Source address\n        @param to Target address\n        @param ids IDs of each token type\n        @param values Transfer amounts per token type\n        @param data Data forwarded to `onERC1155Received` if `to` is a contract receiver\n    */\n    function safeBatchTransferFrom(\n        address from,\n        address to,\n        uint256[] memory ids,\n        uint256[] memory values,\n        bytes memory data\n    ) public override {\n        require(\n            ids.length == values.length,\n            \"ERC1155: IDs and values must have same lengths\"\n        );\n        require(to != address(0), \"ERC1155: target address must be non-zero\");\n        require(\n            from == msg.sender || isApprovedForAll(from, msg.sender) == true,\n            \"ERC1155: need operator approval for 3rd party transfers\"\n        );\n\n        for (uint256 i = 0; i < ids.length; ++i) {\n            uint256 id = ids[i];\n            uint256 value = values[i];\n\n            _balances[id][from] = _balances[id][from].sub(\n                value,\n                \"ERC1155: insufficient balance of some token type for transfer\"\n            );\n            _balances[id][to] = _balances[id][to].add(value);\n        }\n\n        emit TransferBatch(msg.sender, from, to, ids, values);\n\n        _doSafeBatchTransferAcceptanceCheck(\n            msg.sender,\n            from,\n            to,\n            ids,\n            values,\n            data\n        );\n    }\n    function mint(address to, uint256 id, uint256 value, bytes memory data) public returns (bool) {\n        _mint(to, id, value, data);\n        return true;\n    }\n    \n    function mintBatch(\n        address to,\n        uint256[] memory ids,\n        uint256[] memory values,\n        bytes memory data\n    ) public returns (bool) {\n        _mintBatch(\n        to,\n        ids,\n        values,\n        data\n    );\n        return true;\n    }\n    /**\n     * @dev Internal function to mint an amount of a token with the given ID\n     * @param to The address that will own the minted token\n     * @param id ID of the token to be minted\n     * @param value Amount of the token to be minted\n     * @param data Data forwarded to `onERC1155Received` if `to` is a contract receiver\n     */\n    function _mint(address to, uint256 id, uint256 value, bytes memory data)\n        internal\n        virtual\n    {\n        require(to != address(0), \"ERC1155: mint to the zero address\");\n\n        _balances[id][to] = _balances[id][to].add(value);\n        emit TransferSingle(msg.sender, address(0), to, id, value);\n\n        _doSafeTransferAcceptanceCheck(\n            msg.sender,\n            address(0),\n            to,\n            id,\n            value,\n            data\n        );\n    }\n\n    /**\n     * @dev Internal function to batch mint amounts of tokens with the given IDs\n     * @param to The address that will own the minted token\n     * @param ids IDs of the tokens to be minted\n     * @param values Amounts of the tokens to be minted\n     * @param data Data forwarded to `onERC1155Received` if `to` is a contract receiver\n     */\n    function _mintBatch(\n        address to,\n        uint256[] memory ids,\n        uint256[] memory values,\n        bytes memory data\n    ) internal virtual {\n        require(to != address(0), \"ERC1155: batch mint to the zero address\");\n        require(\n            ids.length == values.length,\n            \"ERC1155: minted IDs and values must have same lengths\"\n        );\n\n        for (uint256 i = 0; i < ids.length; i++) {\n            _balances[ids[i]][to] = values[i].add(_balances[ids[i]][to]);\n        }\n\n        emit TransferBatch(msg.sender, address(0), to, ids, values);\n\n        _doSafeBatchTransferAcceptanceCheck(\n            msg.sender,\n            address(0),\n            to,\n            ids,\n            values,\n            data\n        );\n    }\n\n    function uri(uint256) external view override returns (string memory) {\n        return \"didnt know what to do with this\";\n    }\n//oz\n    function _doSafeTransferAcceptanceCheck(\n        address operator,\n        address from,\n        address to,\n        uint256 id,\n        uint256 value,\n        bytes memory data\n    ) private {\n        if (to.isContract()) {\n            require(\n                IERC1155Receiver(to).onERC1155Received(\n                    operator,\n                    from,\n                    id,\n                    value,\n                    data\n                ) == IERC1155Receiver(to).onERC1155Received.selector,\n                \"ERC1155: got unknown value from onERC1155Received\"\n            );\n        }\n    }\n//oz\n    function _doSafeBatchTransferAcceptanceCheck(\n        address operator,\n        address from,\n        address to,\n        uint256[] memory ids,\n        uint256[] memory values,\n        bytes memory data\n    ) private {\n        if (to.isContract()) {\n            require(\n                IERC1155Receiver(to).onERC1155BatchReceived(\n                    operator,\n                    from,\n                    ids,\n                    values,\n                    data\n                ) == IERC1155Receiver(to).onERC1155BatchReceived.selector,\n                \"ERC1155: got unknown value from onERC1155BatchReceived\"\n            );\n        }\n    }\n}\n",
  "sourcePath": "contracts/ERC1155.sol",
  "abi": [
    {
      "anonymous": false,
      "inputs": [
        {
          "indexed": true,
          "internalType": "address",
          "name": "account",
          "type": "address"
        },
        {
          "indexed": true,
          "internalType": "address",
          "name": "operator",
          "type": "address"
        },
        {
          "indexed": false,
          "internalType": "bool",
          "name": "approved",
          "type": "bool"
        }
      ],
      "name": "ApprovalForAll",
      "type": "event"
    },
    {
      "anonymous": false,
      "inputs": [
        {
          "indexed": true,
          "internalType": "address",
          "name": "operator",
          "type": "address"
        },
        {
          "indexed": true,
          "internalType": "address",
          "name": "from",
          "type": "address"
        },
        {
          "indexed": true,
          "internalType": "address",
          "name": "to",
          "type": "address"
        },
        {
          "indexed": false,
          "internalType": "uint256[]",
          "name": "ids",
          "type": "uint256[]"
        },
        {
          "indexed": false,
          "internalType": "uint256[]",
          "name": "values",
          "type": "uint256[]"
        }
      ],
      "name": "TransferBatch",
      "type": "event"
    },
    {
      "anonymous": false,
      "inputs": [
        {
          "indexed": true,
          "internalType": "address",
          "name": "operator",
          "type": "address"
        },
        {
          "indexed": true,
          "internalType": "address",
          "name": "from",
          "type": "address"
        },
        {
          "indexed": true,
          "internalType": "address",
          "name": "to",
          "type": "address"
        },
        {
          "indexed": false,
          "internalType": "uint256",
          "name": "id",
          "type": "uint256"
        },
        {
          "indexed": false,
          "internalType": "uint256",
          "name": "value",
          "type": "uint256"
        }
      ],
      "name": "TransferSingle",
      "type": "event"
    },
    {
      "anonymous": false,
      "inputs": [
        {
          "indexed": false,
          "internalType": "string",
          "name": "value",
          "type": "string"
        },
        {
          "indexed": true,
          "internalType": "uint256",
          "name": "id",
          "type": "uint256"
        }
      ],
      "name": "URI",
      "type": "event"
    },
    {
      "inputs": [
        {
          "internalType": "address",
          "name": "account",
          "type": "address"
        },
        {
          "internalType": "uint256",
          "name": "id",
          "type": "uint256"
        }
      ],
      "name": "balanceOf",
      "outputs": [
        {
          "internalType": "uint256",
          "name": "",
          "type": "uint256"
        }
      ],
      "stateMutability": "view",
      "type": "function"
    },
    {
      "inputs": [
        {
          "internalType": "address[]",
          "name": "accounts",
          "type": "address[]"
        },
        {
          "internalType": "uint256[]",
          "name": "ids",
          "type": "uint256[]"
        }
      ],
      "name": "balanceOfBatch",
      "outputs": [
        {
          "internalType": "uint256[]",
          "name": "",
          "type": "uint256[]"
        }
      ],
      "stateMutability": "view",
      "type": "function"
    },
    {
      "inputs": [
        {
          "internalType": "address",
          "name": "account",
          "type": "address"
        },
        {
          "internalType": "address",
          "name": "operator",
          "type": "address"
        }
      ],
      "name": "isApprovedForAll",
      "outputs": [
        {
          "internalType": "bool",
          "name": "",
          "type": "bool"
        }
      ],
      "stateMutability": "view",
      "type": "function"
    },
    {
      "inputs": [
        {
          "internalType": "address",
          "name": "to",
          "type": "address"
        },
        {
          "internalType": "uint256",
          "name": "id",
          "type": "uint256"
        },
        {
          "internalType": "uint256",
          "name": "value",
          "type": "uint256"
        },
        {
          "internalType": "bytes",
          "name": "data",
          "type": "bytes"
        }
      ],
      "name": "mint",
      "outputs": [
        {
          "internalType": "bool",
          "name": "",
          "type": "bool"
        }
      ],
      "stateMutability": "nonpayable",
      "type": "function"
    },
    {
      "inputs": [
        {
          "internalType": "address",
          "name": "to",
          "type": "address"
        },
        {
          "internalType": "uint256[]",
          "name": "ids",
          "type": "uint256[]"
        },
        {
          "internalType": "uint256[]",
          "name": "values",
          "type": "uint256[]"
        },
        {
          "internalType": "bytes",
          "name": "data",
          "type": "bytes"
        }
      ],
      "name": "mintBatch",
      "outputs": [
        {
          "internalType": "bool",
          "name": "",
          "type": "bool"
        }
      ],
      "stateMutability": "nonpayable",
      "type": "function"
    },
    {
      "inputs": [
        {
          "internalType": "address",
          "name": "from",
          "type": "address"
        },
        {
          "internalType": "address",
          "name": "to",
          "type": "address"
        },
        {
          "internalType": "uint256[]",
          "name": "ids",
          "type": "uint256[]"
        },
        {
          "internalType": "uint256[]",
          "name": "values",
          "type": "uint256[]"
        },
        {
          "internalType": "bytes",
          "name": "data",
          "type": "bytes"
        }
      ],
      "name": "safeBatchTransferFrom",
      "outputs": [],
      "stateMutability": "nonpayable",
      "type": "function"
    },
    {
      "inputs": [
        {
          "internalType": "address",
          "name": "from",
          "type": "address"
        },
        {
          "internalType": "address",
          "name": "to",
          "type": "address"
        },
        {
          "internalType": "uint256",
          "name": "id",
          "type": "uint256"
        },
        {
          "internalType": "uint256",
          "name": "value",
          "type": "uint256"
        },
        {
          "internalType": "bytes",
          "name": "data",
          "type": "bytes"
        }
      ],
      "name": "safeTransferFrom",
      "outputs": [],
      "stateMutability": "nonpayable",
      "type": "function"
    },
    {
      "inputs": [
        {
          "internalType": "address",
          "name": "operator",
          "type": "address"
        },
        {
          "internalType": "bool",
          "name": "approved",
          "type": "bool"
        }
      ],
      "name": "setApprovalForAll",
      "outputs": [],
      "stateMutability": "nonpayable",
      "type": "function"
    },
    {
      "inputs": [
        {
          "internalType": "uint256",
          "name": "",
          "type": "uint256"
        }
      ],
      "name": "uri",
      "outputs": [
        {
          "internalType": "string",
          "name": "",
          "type": "string"
        }
      ],
      "stateMutability": "view",
      "type": "function"
    }
  ],
  "bytecode": "0x608060405234801561001057600080fd5b5061258a806100206000396000f3fe608060405234801561001057600080fd5b50600436106100925760003560e01c80634e1273f4116100665780634e1273f4146105de578063731133e91461077f578063a22cb46514610886578063e985e9c5146108d6578063f242432a1461095257610092565b8062fdd58e146100975780630e89341c146100f95780631f7fdffa146101a05780632eb2c2d6146103bb575b600080fd5b6100e3600480360360408110156100ad57600080fd5b81019080803573ffffffffffffffffffffffffffffffffffffffff16906020019092919080359060200190929190505050610a61565b6040518082815260200191505060405180910390f35b6101256004803603602081101561010f57600080fd5b8101908080359060200190929190505050610b40565b6040518080602001828103825283818151815260200191508051906020019080838360005b8381101561016557808201518184015260208101905061014a565b50505050905090810190601f1680156101925780820380516001836020036101000a031916815260200191505b509250505060405180910390f35b6103a1600480360360808110156101b657600080fd5b81019080803573ffffffffffffffffffffffffffffffffffffffff169060200190929190803590602001906401000000008111156101f357600080fd5b82018360208201111561020557600080fd5b8035906020019184602083028401116401000000008311171561022757600080fd5b919080806020026020016040519081016040528093929190818152602001838360200280828437600081840152601f19601f8201169050808301925050505050505091929192908035906020019064010000000081111561028757600080fd5b82018360208201111561029957600080fd5b803590602001918460208302840111640100000000831117156102bb57600080fd5b919080806020026020016040519081016040528093929190818152602001838360200280828437600081840152601f19601f8201169050808301925050505050505091929192908035906020019064010000000081111561031b57600080fd5b82018360208201111561032d57600080fd5b8035906020019184600183028401116401000000008311171561034f57600080fd5b91908080601f016020809104026020016040519081016040528093929190818152602001838380828437600081840152601f19601f820116905080830192505050505050509192919290505050610b7f565b604051808215151515815260200191505060405180910390f35b6105dc600480360360a08110156103d157600080fd5b81019080803573ffffffffffffffffffffffffffffffffffffffff169060200190929190803573ffffffffffffffffffffffffffffffffffffffff1690602001909291908035906020019064010000000081111561042e57600080fd5b82018360208201111561044057600080fd5b8035906020019184602083028401116401000000008311171561046257600080fd5b919080806020026020016040519081016040528093929190818152602001838360200280828437600081840152601f19601f820116905080830192505050505050509192919290803590602001906401000000008111156104c257600080fd5b8201836020820111156104d457600080fd5b803590602001918460208302840111640100000000831117156104f657600080fd5b919080806020026020016040519081016040528093929190818152602001838360200280828437600081840152601f19601f8201169050808301925050505050505091929192908035906020019064010000000081111561055657600080fd5b82018360208201111561056857600080fd5b8035906020019184600183028401116401000000008311171561058a57600080fd5b91908080601f016020809104026020016040519081016040528093929190818152602001838380828437600081840152601f19601f820116905080830192505050505050509192919290505050610b99565b005b610728600480360360408110156105f457600080fd5b810190808035906020019064010000000081111561061157600080fd5b82018360208201111561062357600080fd5b8035906020019184602083028401116401000000008311171561064557600080fd5b919080806020026020016040519081016040528093929190818152602001838360200280828437600081840152601f19601f820116905080830192505050505050509192919290803590602001906401000000008111156106a557600080fd5b8201836020820111156106b757600080fd5b803590602001918460208302840111640100000000831117156106d957600080fd5b919080806020026020016040519081016040528093929190818152602001838360200280828437600081840152601f19601f820116905080830192505050505050509192919290505050611001565b6040518080602001828103825283818151815260200191508051906020019060200280838360005b8381101561076b578082015181840152602081019050610750565b505050509050019250505060405180910390f35b61086c6004803603608081101561079557600080fd5b81019080803573ffffffffffffffffffffffffffffffffffffffff1690602001909291908035906020019092919080359060200190929190803590602001906401000000008111156107e657600080fd5b8201836020820111156107f857600080fd5b8035906020019184600183028401116401000000008311171561081a57600080fd5b91908080601f016020809104026020016040519081016040528093929190818152602001838380828437600081840152601f19601f8201169050808301925050505050505091929192905050506111f5565b604051808215151515815260200191505060405180910390f35b6108d46004803603604081101561089c57600080fd5b81019080803573ffffffffffffffffffffffffffffffffffffffff16906020019092919080351515906020019092919050505061120f565b005b610938600480360360408110156108ec57600080fd5b81019080803573ffffffffffffffffffffffffffffffffffffffff169060200190929190803573ffffffffffffffffffffffffffffffffffffffff169060200190929190505050611395565b604051808215151515815260200191505060405180910390f35b610a5f600480360360a081101561096857600080fd5b81019080803573ffffffffffffffffffffffffffffffffffffffff169060200190929190803573ffffffffffffffffffffffffffffffffffffffff1690602001909291908035906020019092919080359060200190929190803590602001906401000000008111156109d957600080fd5b8201836020820111156109eb57600080fd5b80359060200191846001830284011164010000000083111715610a0d57600080fd5b91908080601f016020809104026020016040519081016040528093929190818152602001838380828437600081840152601f19601f820116905080830192505050505050509192919290505050611429565b005b60008073ffffffffffffffffffffffffffffffffffffffff168373ffffffffffffffffffffffffffffffffffffffff161415610ae8576040517f08c379a000000000000000000000000000000000000000000000000000000000815260040180806020018281038252602b8152602001806122c2602b913960400191505060405180910390fd5b60008083815260200190815260200160002060008473ffffffffffffffffffffffffffffffffffffffff1673ffffffffffffffffffffffffffffffffffffffff16815260200190815260200160002054905092915050565b60606040518060400160405280601f81526020017f6469646e74206b6e6f77207768617420746f20646f20776974682074686973008152509050919050565b6000610b8d85858585611768565b60019050949350505050565b8151835114610bf3576040517f08c379a000000000000000000000000000000000000000000000000000000000815260040180806020018281038252602e81526020018061243c602e913960400191505060405180910390fd5b600073ffffffffffffffffffffffffffffffffffffffff168473ffffffffffffffffffffffffffffffffffffffff161415610c79576040517f08c379a00000000000000000000000000000000000000000000000000000000081526004018080602001828103825260288152602001806122ed6028913960400191505060405180910390fd5b3373ffffffffffffffffffffffffffffffffffffffff168573ffffffffffffffffffffffffffffffffffffffff161480610cc0575060011515610cbc8633611395565b1515145b610d15576040517f08c379a00000000000000000000000000000000000000000000000000000000081526004018080602001828103825260378152602001806124056037913960400191505060405180910390fd5b60008090505b8351811015610ee5576000848281518110610d3257fe5b602002602001015190506000848381518110610d4a57fe5b60200260200101519050610dd0816040518060600160405280603d81526020016124e7603d913960008086815260200190815260200160002060008c73ffffffffffffffffffffffffffffffffffffffff1673ffffffffffffffffffffffffffffffffffffffff16815260200190815260200160002054611a6f9092919063ffffffff16565b60008084815260200190815260200160002060008a73ffffffffffffffffffffffffffffffffffffffff1673ffffffffffffffffffffffffffffffffffffffff16815260200190815260200160002081905550610e858160008085815260200190815260200160002060008a73ffffffffffffffffffffffffffffffffffffffff1673ffffffffffffffffffffffffffffffffffffffff16815260200190815260200160002054611b2f90919063ffffffff16565b60008084815260200190815260200160002060008973ffffffffffffffffffffffffffffffffffffffff1673ffffffffffffffffffffffffffffffffffffffff168152602001908152602001600020819055505050806001019050610d1b565b508373ffffffffffffffffffffffffffffffffffffffff168573ffffffffffffffffffffffffffffffffffffffff163373ffffffffffffffffffffffffffffffffffffffff167f4a39dc06d4c0dbc64b70af90fd698a233a518aa5d07e595d983b8c0526c8f7fb8686604051808060200180602001838103835285818151815260200191508051906020019060200280838360005b83811015610f95578082015181840152602081019050610f7a565b50505050905001838103825284818151815260200191508051906020019060200280838360005b83811015610fd7578082015181840152602081019050610fbc565b5050505090500194505050505060405180910390a4610ffa338686868686611bb7565b5050505050565b6060815183511461105d576040517f08c379a00000000000000000000000000000000000000000000000000000000081526004018080602001828103825260308152602001806123416030913960400191505060405180910390fd5b6060835167ffffffffffffffff8111801561107757600080fd5b506040519080825280602002602001820160405280156110a65781602001602082028036833780820191505090505b50905060008090505b84518110156111ea57600073ffffffffffffffffffffffffffffffffffffffff168582815181106110dc57fe5b602002602001015173ffffffffffffffffffffffffffffffffffffffff161415611151576040517f08c379a00000000000000000000000000000000000000000000000000000000081526004018080602001828103825260348152602001806123a76034913960400191505060405180910390fd5b60008085838151811061116057fe5b60200260200101518152602001908152602001600020600086838151811061118457fe5b602002602001015173ffffffffffffffffffffffffffffffffffffffff1673ffffffffffffffffffffffffffffffffffffffff168152602001908152602001600020548282815181106111d357fe5b6020026020010181815250508060010190506110af565b508091505092915050565b600061120385858585611e6d565b60019050949350505050565b8173ffffffffffffffffffffffffffffffffffffffff163373ffffffffffffffffffffffffffffffffffffffff161415611294576040517f08c379a000000000000000000000000000000000000000000000000000000000815260040180806020018281038252602c815260200180612315602c913960400191505060405180910390fd5b80600160003373ffffffffffffffffffffffffffffffffffffffff1673ffffffffffffffffffffffffffffffffffffffff16815260200190815260200160002060008473ffffffffffffffffffffffffffffffffffffffff1673ffffffffffffffffffffffffffffffffffffffff16815260200190815260200160002060006101000a81548160ff0219169083151502179055508173ffffffffffffffffffffffffffffffffffffffff163373ffffffffffffffffffffffffffffffffffffffff167f17307eab39ab6107e8899845ad3d59bd9653f200f220920489ca2b5937696c3183604051808215151515815260200191505060405180910390a35050565b6000600160008473ffffffffffffffffffffffffffffffffffffffff1673ffffffffffffffffffffffffffffffffffffffff16815260200190815260200160002060008373ffffffffffffffffffffffffffffffffffffffff1673ffffffffffffffffffffffffffffffffffffffff16815260200190815260200160002060009054906101000a900460ff16905092915050565b600073ffffffffffffffffffffffffffffffffffffffff168473ffffffffffffffffffffffffffffffffffffffff1614156114af576040517f08c379a00000000000000000000000000000000000000000000000000000000081526004018080602001828103825260288152602001806122ed6028913960400191505060405180910390fd5b3373ffffffffffffffffffffffffffffffffffffffff168573ffffffffffffffffffffffffffffffffffffffff1614806114f65750600115156114f28633611395565b1515145b61154b576040517f08c379a00000000000000000000000000000000000000000000000000000000081526004018080602001828103825260378152602001806124056037913960400191505060405180910390fd5b6115c7826040518060600160405280602a81526020016123db602a913960008087815260200190815260200160002060008973ffffffffffffffffffffffffffffffffffffffff1673ffffffffffffffffffffffffffffffffffffffff16815260200190815260200160002054611a6f9092919063ffffffff16565b60008085815260200190815260200160002060008773ffffffffffffffffffffffffffffffffffffffff1673ffffffffffffffffffffffffffffffffffffffff1681526020019081526020016000208190555061167c8260008086815260200190815260200160002060008773ffffffffffffffffffffffffffffffffffffffff1673ffffffffffffffffffffffffffffffffffffffff16815260200190815260200160002054611b2f90919063ffffffff16565b60008085815260200190815260200160002060008673ffffffffffffffffffffffffffffffffffffffff1673ffffffffffffffffffffffffffffffffffffffff168152602001908152602001600020819055508373ffffffffffffffffffffffffffffffffffffffff168573ffffffffffffffffffffffffffffffffffffffff163373ffffffffffffffffffffffffffffffffffffffff167fc3d58168c5ae7397731d063d5bbf3d657854427343f4c083240f7aacaa2d0f628686604051808381526020018281526020019250505060405180910390a4611761338686868686612042565b5050505050565b600073ffffffffffffffffffffffffffffffffffffffff168473ffffffffffffffffffffffffffffffffffffffff1614156117ee576040517f08c379a000000000000000000000000000000000000000000000000000000000815260040180806020018281038252602781526020018061249f6027913960400191505060405180910390fd5b8151835114611848576040517f08c379a000000000000000000000000000000000000000000000000000000000815260040180806020018281038252603581526020018061246a6035913960400191505060405180910390fd5b60008090505b8351811015611952576118df60008086848151811061186957fe5b6020026020010151815260200190815260200160002060008773ffffffffffffffffffffffffffffffffffffffff1673ffffffffffffffffffffffffffffffffffffffff168152602001908152602001600020548483815181106118c957fe5b6020026020010151611b2f90919063ffffffff16565b6000808684815181106118ee57fe5b6020026020010151815260200190815260200160002060008773ffffffffffffffffffffffffffffffffffffffff1673ffffffffffffffffffffffffffffffffffffffff16815260200190815260200160002081905550808060010191505061184e565b508373ffffffffffffffffffffffffffffffffffffffff16600073ffffffffffffffffffffffffffffffffffffffff163373ffffffffffffffffffffffffffffffffffffffff167f4a39dc06d4c0dbc64b70af90fd698a233a518aa5d07e595d983b8c0526c8f7fb8686604051808060200180602001838103835285818151815260200191508051906020019060200280838360005b83811015611a035780820151818401526020810190506119e8565b50505050905001838103825284818151815260200191508051906020019060200280838360005b83811015611a45578082015181840152602081019050611a2a565b5050505090500194505050505060405180910390a4611a6933600086868686611bb7565b50505050565b6000838311158290611b1c576040517f08c379a00000000000000000000000000000000000000000000000000000000081526004018080602001828103825283818151815260200191508051906020019080838360005b83811015611ae1578082015181840152602081019050611ac6565b50505050905090810190601f168015611b0e5780820380516001836020036101000a031916815260200191505b509250505060405180910390fd5b5060008385039050809150509392505050565b600080828401905083811015611bad576040517f08c379a000000000000000000000000000000000000000000000000000000000815260040180806020018281038252601b8152602001807f536166654d6174683a206164646974696f6e206f766572666c6f77000000000081525060200191505060405180910390fd5b8091505092915050565b611bd68473ffffffffffffffffffffffffffffffffffffffff16612276565b15611e655763bc197c8160e01b7bffffffffffffffffffffffffffffffffffffffffffffffffffffffff19168473ffffffffffffffffffffffffffffffffffffffff1663bc197c8188888787876040518663ffffffff1660e01b8152600401808673ffffffffffffffffffffffffffffffffffffffff1673ffffffffffffffffffffffffffffffffffffffff1681526020018573ffffffffffffffffffffffffffffffffffffffff1673ffffffffffffffffffffffffffffffffffffffff168152602001806020018060200180602001848103845287818151815260200191508051906020019060200280838360005b83811015611ce1578082015181840152602081019050611cc6565b50505050905001848103835286818151815260200191508051906020019060200280838360005b83811015611d23578082015181840152602081019050611d08565b50505050905001848103825285818151815260200191508051906020019080838360005b83811015611d62578082015181840152602081019050611d47565b50505050905090810190601f168015611d8f5780820380516001836020036101000a031916815260200191505b5098505050505050505050602060405180830381600087803b158015611db457600080fd5b505af1158015611dc8573d6000803e3d6000fd5b505050506040513d6020811015611dde57600080fd5b81019080805190602001909291905050507bffffffffffffffffffffffffffffffffffffffffffffffffffffffff191614611e64576040517f08c379a00000000000000000000000000000000000000000000000000000000081526004018080602001828103825260368152602001806123716036913960400191505060405180910390fd5b5b505050505050565b600073ffffffffffffffffffffffffffffffffffffffff168473ffffffffffffffffffffffffffffffffffffffff161415611ef3576040517f08c379a00000000000000000000000000000000000000000000000000000000081526004018080602001828103825260218152602001806124c66021913960400191505060405180910390fd5b611f558260008086815260200190815260200160002060008773ffffffffffffffffffffffffffffffffffffffff1673ffffffffffffffffffffffffffffffffffffffff16815260200190815260200160002054611b2f90919063ffffffff16565b60008085815260200190815260200160002060008673ffffffffffffffffffffffffffffffffffffffff1673ffffffffffffffffffffffffffffffffffffffff168152602001908152602001600020819055508373ffffffffffffffffffffffffffffffffffffffff16600073ffffffffffffffffffffffffffffffffffffffff163373ffffffffffffffffffffffffffffffffffffffff167fc3d58168c5ae7397731d063d5bbf3d657854427343f4c083240f7aacaa2d0f628686604051808381526020018281526020019250505060405180910390a461203c33600086868686612042565b50505050565b6120618473ffffffffffffffffffffffffffffffffffffffff16612276565b1561226e5763f23a6e6160e01b7bffffffffffffffffffffffffffffffffffffffffffffffffffffffff19168473ffffffffffffffffffffffffffffffffffffffff1663f23a6e6188888787876040518663ffffffff1660e01b8152600401808673ffffffffffffffffffffffffffffffffffffffff1673ffffffffffffffffffffffffffffffffffffffff1681526020018573ffffffffffffffffffffffffffffffffffffffff1673ffffffffffffffffffffffffffffffffffffffff16815260200184815260200183815260200180602001828103825283818151815260200191508051906020019080838360005b8381101561216d578082015181840152602081019050612152565b50505050905090810190601f16801561219a5780820380516001836020036101000a031916815260200191505b509650505050505050602060405180830381600087803b1580156121bd57600080fd5b505af11580156121d1573d6000803e3d6000fd5b505050506040513d60208110156121e757600080fd5b81019080805190602001909291905050507bffffffffffffffffffffffffffffffffffffffffffffffffffffffff19161461226d576040517f08c379a00000000000000000000000000000000000000000000000000000000081526004018080602001828103825260318152602001806125246031913960400191505060405180910390fd5b5b505050505050565b60008060007fc5d2460186f7233c927e7db2dcc703c0e500b653ca82273b7bfad8045d85a47060001b9050833f91508082141580156122b857506000801b8214155b9250505091905056fe455243313135353a2062616c616e636520717565727920666f7220746865207a65726f2061646472657373455243313135353a207461726765742061646472657373206d757374206265206e6f6e2d7a65726f455243313135353a2063616e6e6f742073657420617070726f76616c2073746174757320666f722073656c66455243313135353a206163636f756e747320616e6420494473206d75737420686176652073616d65206c656e67746873455243313135353a20676f7420756e6b6e6f776e2076616c75652066726f6d206f6e4552433131353542617463685265636569766564455243313135353a20736f6d65206164647265737320696e2062617463682062616c616e6365207175657279206973207a65726f455243313135353a20696e73756666696369656e742062616c616e636520666f72207472616e73666572455243313135353a206e656564206f70657261746f7220617070726f76616c20666f7220337264207061727479207472616e7366657273455243313135353a2049447320616e642076616c756573206d75737420686176652073616d65206c656e67746873455243313135353a206d696e7465642049447320616e642076616c756573206d75737420686176652073616d65206c656e67746873455243313135353a206261746368206d696e7420746f20746865207a65726f2061646472657373455243313135353a206d696e7420746f20746865207a65726f2061646472657373455243313135353a20696e73756666696369656e742062616c616e6365206f6620736f6d6520746f6b656e207479706520666f72207472616e73666572455243313135353a20676f7420756e6b6e6f776e2076616c75652066726f6d206f6e455243313135355265636569766564a26469706673582212201e1612607468dfba8a78f3858a1a51d125db2fe07b6404ff1a9154d4878f05e764736f6c63430006090033",
  "compiler": {
    "name": "solc",
    "version": "0.6.9+commit.3e3065ac.Emscripten.clang",
    "optimizer": {
      "enabled": false,
      "runs": 200
    },
    "evmVersion": "petersburg"
  }
}